{
  "contractName": "Draft",
  "abi": [
    {
      "constant": true,
      "inputs": [
        {
          "name": "",
          "type": "uint256"
        }
      ],
      "name": "owners",
      "outputs": [
        {
          "name": "",
          "type": "address"
        }
      ],
      "payable": false,
      "stateMutability": "view",
      "type": "function"
    },
    {
      "constant": true,
      "inputs": [],
      "name": "active",
      "outputs": [
        {
          "name": "",
          "type": "bool"
        }
      ],
      "payable": false,
      "stateMutability": "view",
      "type": "function"
    },
    {
      "constant": true,
      "inputs": [],
      "name": "totalPot",
      "outputs": [
        {
          "name": "",
          "type": "uint256"
        }
      ],
      "payable": false,
      "stateMutability": "view",
      "type": "function"
    },
    {
      "constant": true,
      "inputs": [
        {
          "name": "",
          "type": "address"
        }
      ],
      "name": "balances",
      "outputs": [
        {
          "name": "",
          "type": "uint256"
        }
      ],
      "payable": false,
      "stateMutability": "view",
      "type": "function"
    },
    {
      "constant": false,
      "inputs": [],
      "name": "kill",
      "outputs": [],
      "payable": false,
      "stateMutability": "nonpayable",
      "type": "function"
    },
    {
      "constant": true,
      "inputs": [],
      "name": "owner",
      "outputs": [
        {
          "name": "",
          "type": "address"
        }
      ],
      "payable": false,
      "stateMutability": "view",
      "type": "function"
    },
    {
      "constant": true,
      "inputs": [],
      "name": "claimable",
      "outputs": [
        {
          "name": "",
          "type": "bool"
        }
      ],
      "payable": false,
      "stateMutability": "view",
      "type": "function"
    },
    {
      "constant": true,
      "inputs": [],
      "name": "winner",
      "outputs": [
        {
          "name": "",
          "type": "address"
        }
      ],
      "payable": false,
      "stateMutability": "view",
      "type": "function"
    },
    {
      "constant": true,
      "inputs": [],
      "name": "individualDeposit",
      "outputs": [
        {
          "name": "",
          "type": "uint256"
        }
      ],
      "payable": false,
      "stateMutability": "view",
      "type": "function"
    },
    {
      "inputs": [],
      "payable": false,
      "stateMutability": "nonpayable",
      "type": "constructor"
    },
    {
      "anonymous": false,
      "inputs": [
        {
          "indexed": false,
          "name": "_account",
          "type": "address"
        }
      ],
      "name": "eventBoughtIn",
      "type": "event"
    },
    {
      "anonymous": false,
      "inputs": [
        {
          "indexed": false,
          "name": "_account",
          "type": "address"
        }
      ],
      "name": "eventDeclareWinner",
      "type": "event"
    },
    {
      "anonymous": false,
      "inputs": [
        {
          "indexed": false,
          "name": "playerId",
          "type": "uint256"
        }
      ],
      "name": "eventDraft",
      "type": "event"
    },
    {
      "constant": true,
      "inputs": [],
      "name": "getStatus",
      "outputs": [
        {
          "name": "",
          "type": "bool"
        }
      ],
      "payable": false,
      "stateMutability": "view",
      "type": "function"
    },
    {
      "constant": true,
      "inputs": [],
      "name": "getOwners",
      "outputs": [
        {
          "name": "",
          "type": "address[24]"
        }
      ],
      "payable": false,
      "stateMutability": "view",
      "type": "function"
    },
    {
      "constant": true,
      "inputs": [],
      "name": "getWinner",
      "outputs": [
        {
          "name": "",
          "type": "address"
        }
      ],
      "payable": false,
      "stateMutability": "view",
      "type": "function"
    },
    {
      "constant": true,
      "inputs": [
        {
          "name": "_account",
          "type": "address"
        }
      ],
      "name": "getBalance",
      "outputs": [
        {
          "name": "",
          "type": "uint256"
        }
      ],
      "payable": false,
      "stateMutability": "view",
      "type": "function"
    },
    {
      "constant": false,
      "inputs": [
        {
          "name": "playerId",
          "type": "uint256"
        },
        {
          "name": "cost",
          "type": "uint256"
        }
      ],
      "name": "draftPlayer",
      "outputs": [
        {
          "name": "",
          "type": "uint256"
        }
      ],
      "payable": false,
      "stateMutability": "nonpayable",
      "type": "function"
    },
    {
      "constant": false,
      "inputs": [],
      "name": "buyIn",
      "outputs": [],
      "payable": true,
      "stateMutability": "payable",
      "type": "function"
    },
    {
      "constant": false,
      "inputs": [
        {
          "name": "_account",
          "type": "address"
        }
      ],
      "name": "declareWinner",
      "outputs": [],
      "payable": false,
      "stateMutability": "nonpayable",
      "type": "function"
    },
    {
      "constant": false,
      "inputs": [],
      "name": "emergencyReturn",
      "outputs": [],
      "payable": false,
      "stateMutability": "nonpayable",
      "type": "function"
    },
    {
      "constant": false,
      "inputs": [],
      "name": "withdrawFunds",
      "outputs": [],
      "payable": false,
      "stateMutability": "nonpayable",
      "type": "function"
    }
  ],
  "bytecode": "0x608060405234801561001057600080fd5b50336000806101000a81548173ffffffffffffffffffffffffffffffffffffffff021916908373ffffffffffffffffffffffffffffffffffffffff16021790555033601b60006101000a81548173ffffffffffffffffffffffffffffffffffffffff021916908373ffffffffffffffffffffffffffffffffffffffff16021790555060056019819055506001601c60146101000a81548160ff0219169083151502179055506000601c60156101000a81548160ff0219169083151502179055506112e8806100df6000396000f3006080604052600436106100fc576000357c0100000000000000000000000000000000000000000000000000000000900463ffffffff168063025e7c271461010157806302fb0c5e1461016e57806324600fc31461019d57806324b570a9146101b457806327e235e3146101df57806341c0e1b5146102365780634e69d5601461024d57806353aab4341461027c5780635a4b8c1d146102865780636fd848741461029d5780638da5cb5b146102e85780638e7ea5b21461033f578063a0e67e2b14610396578063af38d757146103e9578063db33f4f814610418578063dfbf53ae1461045b578063efb5c1f8146104b2578063f8b2cb4f146104dd575b600080fd5b34801561010d57600080fd5b5061012c60048036038101908080359060200190929190505050610534565b604051808273ffffffffffffffffffffffffffffffffffffffff1673ffffffffffffffffffffffffffffffffffffffff16815260200191505060405180910390f35b34801561017a57600080fd5b50610183610569565b604051808215151515815260200191505060405180910390f35b3480156101a957600080fd5b506101b261057c565b005b3480156101c057600080fd5b506101c96106ec565b6040518082815260200191505060405180910390f35b3480156101eb57600080fd5b50610220600480360381019080803573ffffffffffffffffffffffffffffffffffffffff1690602001909291905050506106f2565b6040518082815260200191505060405180910390f35b34801561024257600080fd5b5061024b61070a565b005b34801561025957600080fd5b5061026261079b565b604051808215151515815260200191505060405180910390f35b6102846107b2565b005b34801561029257600080fd5b5061029b610a96565b005b3480156102a957600080fd5b506102d26004803603810190808035906020019092919080359060200190929190505050610c20565b6040518082815260200191505060405180910390f35b3480156102f457600080fd5b506102fd610dc8565b604051808273ffffffffffffffffffffffffffffffffffffffff1673ffffffffffffffffffffffffffffffffffffffff16815260200191505060405180910390f35b34801561034b57600080fd5b50610354610dee565b604051808273ffffffffffffffffffffffffffffffffffffffff1673ffffffffffffffffffffffffffffffffffffffff16815260200191505060405180910390f35b3480156103a257600080fd5b506103ab610e18565b6040518082601860200280838360005b838110156103d65780820151818401526020810190506103bb565b5050505090500191505060405180910390f35b3480156103f557600080fd5b506103fe610e99565b604051808215151515815260200191505060405180910390f35b34801561042457600080fd5b50610459600480360381019080803573ffffffffffffffffffffffffffffffffffffffff169060200190929190505050610eac565b005b34801561046757600080fd5b50610470611133565b604051808273ffffffffffffffffffffffffffffffffffffffff1673ffffffffffffffffffffffffffffffffffffffff16815260200191505060405180910390f35b3480156104be57600080fd5b506104c7611159565b6040518082815260200191505060405180910390f35b3480156104e957600080fd5b5061051e600480360381019080803573ffffffffffffffffffffffffffffffffffffffff16906020019092919050505061115f565b6040518082815260200191505060405180910390f35b60018160188110151561054357fe5b016000915054906101000a900473ffffffffffffffffffffffffffffffffffffffff1681565b601c60149054906101000a900460ff1681565b600060011515601c60159054906101000a900460ff161515141515610609576040517f08c379a000000000000000000000000000000000000000000000000000000000815260040180806020018281038252600f8152602001807f43616e6e6f74207769746864726177000000000000000000000000000000000081525060200191505060405180910390fd5b601954601a60008282540392505081905550601e60003373ffffffffffffffffffffffffffffffffffffffff1673ffffffffffffffffffffffffffffffffffffffff1681526020019081526020016000205490506000601e60003373ffffffffffffffffffffffffffffffffffffffff1673ffffffffffffffffffffffffffffffffffffffff168152602001908152602001600020819055503373ffffffffffffffffffffffffffffffffffffffff166108fc829081150290604051600060405180830381858888f193505050501580156106e8573d6000803e3d6000fd5b5050565b601a5481565b601e6020528060005260406000206000915090505481565b6000809054906101000a900473ffffffffffffffffffffffffffffffffffffffff1673ffffffffffffffffffffffffffffffffffffffff163373ffffffffffffffffffffffffffffffffffffffff161415610799576000809054906101000a900473ffffffffffffffffffffffffffffffffffffffff1673ffffffffffffffffffffffffffffffffffffffff16ff5b565b6000601c60149054906101000a900460ff16905090565b3360011515601d60008373ffffffffffffffffffffffffffffffffffffffff1673ffffffffffffffffffffffffffffffffffffffff16815260200190815260200160002060009054906101000a900460ff1615151415151561087c576040517f08c379a00000000000000000000000000000000000000000000000000000000081526004018080602001828103825260118152602001807f416c726561647920626f7567687420696e00000000000000000000000000000081525060200191505060405180910390fd5b60011515601c60149054906101000a900460ff161515141515610907576040517f08c379a000000000000000000000000000000000000000000000000000000000815260040180806020018281038252600f8152602001807f4c656167756520696e616374697665000000000000000000000000000000000081525060200191505060405180910390fd5b6019543410151515610981576040517f08c379a00000000000000000000000000000000000000000000000000000000081526004018080602001828103825260128152602001807f496e73756666696369656e742066756e6473000000000000000000000000000081525060200191505060405180910390fd5b7fdf97e47d600e22fa541a5ef275b9f5589fce5b95d4b427cb4e19126738ef23d633604051808273ffffffffffffffffffffffffffffffffffffffff1673ffffffffffffffffffffffffffffffffffffffff16815260200191505060405180910390a1601954601a600082825401925050819055506001601d60003373ffffffffffffffffffffffffffffffffffffffff1673ffffffffffffffffffffffffffffffffffffffff16815260200190815260200160002060006101000a81548160ff021916908315150217905550600a601e60003373ffffffffffffffffffffffffffffffffffffffff1673ffffffffffffffffffffffffffffffffffffffff1681526020019081526020016000208190555050565b33601b60009054906101000a900473ffffffffffffffffffffffffffffffffffffffff1673ffffffffffffffffffffffffffffffffffffffff168173ffffffffffffffffffffffffffffffffffffffff16141515610b5c576040517f08c379a000000000000000000000000000000000000000000000000000000000815260040180806020018281038252600e8152602001807f4e6f7420617574686f72697a656400000000000000000000000000000000000081525060200191505060405180910390fd5b60011515601c60149054906101000a900460ff161515141515610be7576040517f08c379a000000000000000000000000000000000000000000000000000000000815260040180806020018281038252600f8152602001807f4c656167756520696e616374697665000000000000000000000000000000000081525060200191505060405180910390fd5b6000601c60146101000a81548160ff0219169083151502179055506001601c60156101000a81548160ff02191690831515021790555050565b60008060008410158015610c35575060178411155b1515610ca9576040517f08c379a00000000000000000000000000000000000000000000000000000000081526004018080602001828103825260188152602001807f496e76616c696420706c617965722073656c65637465642e000000000000000081525060200191505060405180910390fd5b7fb101ce3b05c60b5e398ccbab5b11219b1abcb03665cba30ea28734c8a7e19ccb846040518082815260200191505060405180910390a133600185601881101515610cf057fe5b0160006101000a81548173ffffffffffffffffffffffffffffffffffffffff021916908373ffffffffffffffffffffffffffffffffffffffff160217905550610d78601e60003373ffffffffffffffffffffffffffffffffffffffff1673ffffffffffffffffffffffffffffffffffffffff1681526020019081526020016000205484611277565b905080601e60003373ffffffffffffffffffffffffffffffffffffffff1673ffffffffffffffffffffffffffffffffffffffff168152602001908152602001600020819055508091505092915050565b601b60009054906101000a900473ffffffffffffffffffffffffffffffffffffffff1681565b6000601c60009054906101000a900473ffffffffffffffffffffffffffffffffffffffff16905090565b610e20611298565b6001601880602002604051908101604052809291908260188015610e8f576020028201915b8160009054906101000a900473ffffffffffffffffffffffffffffffffffffffff1673ffffffffffffffffffffffffffffffffffffffff1681526020019060010190808311610e45575b5050505050905090565b601c60159054906101000a900460ff1681565b33601b60009054906101000a900473ffffffffffffffffffffffffffffffffffffffff1673ffffffffffffffffffffffffffffffffffffffff168173ffffffffffffffffffffffffffffffffffffffff16141515610f72576040517f08c379a000000000000000000000000000000000000000000000000000000000815260040180806020018281038252600e8152602001807f4e6f7420617574686f72697a656400000000000000000000000000000000000081525060200191505060405180910390fd5b60011515601c60149054906101000a900460ff161515141515610ffd576040517f08c379a000000000000000000000000000000000000000000000000000000000815260040180806020018281038252600f8152602001807f4c656167756520696e616374697665000000000000000000000000000000000081525060200191505060405180910390fd5b7f65a0544c1478716142aad2795cb642e167df1ac3d615c1256cf54bd5d323ef8e82604051808273ffffffffffffffffffffffffffffffffffffffff1673ffffffffffffffffffffffffffffffffffffffff16815260200191505060405180910390a16000601c60146101000a81548160ff02191690831515021790555081601c60006101000a81548173ffffffffffffffffffffffffffffffffffffffff021916908373ffffffffffffffffffffffffffffffffffffffff160217905550601c60009054906101000a900473ffffffffffffffffffffffffffffffffffffffff1673ffffffffffffffffffffffffffffffffffffffff166108fc601a549081150290604051600060405180830381858888f19350505050158015611126573d6000803e3d6000fd5b506000601a819055505050565b601c60009054906101000a900473ffffffffffffffffffffffffffffffffffffffff1681565b60195481565b6000808260011515601d60008373ffffffffffffffffffffffffffffffffffffffff1673ffffffffffffffffffffffffffffffffffffffff16815260200190815260200160002060009054906101000a900460ff16151514151561122b576040517f08c379a00000000000000000000000000000000000000000000000000000000081526004018080602001828103825260128152602001807f48617665206e6f7420626f7567687420696e000000000000000000000000000081525060200191505060405180910390fd5b601e60008573ffffffffffffffffffffffffffffffffffffffff1673ffffffffffffffffffffffffffffffffffffffff1681526020019081526020016000205491508192505050919050565b60008083831115151561128957600080fd5b82840390508091505092915050565b610300604051908101604052806018906020820280388339808201915050905050905600a165627a7a72305820d7e85c41542d480ddc07c0331a96fa6f1929105f1b724b466e972cd8591c85a50029",
  "source": "// owner/commisioner gets special permissions on the web interface\n// Draft\n// trade\n// release\n// consider multisig later\n\npragma solidity ^0.4.22;\n\n// use OpenZeppelin's SafeMath library to prevent over/underflow on Integer operations\nimport \"./SafeMath.sol\";\n\ncontract owned {\n    constructor() public { owner = msg.sender; }\n    address owner;\n}\n\n// Emergency stop/kill method\ncontract mortal is owned {\n    function kill() public {\n        if (msg.sender == owner) selfdestruct(owner);\n    }\n}\n\ncontract Draft is owned, mortal{\n\n    // array matching owners to players\n    address[24] public owners;\n    \n    uint public individualDeposit;\n    uint public totalPot;\n    \n    // commisioner\n    address public owner;\n    \n    // league winner\n    address public winner;\n    \n    // is the league active?\n    bool public active;\n    \n    // can users claim funds?\n    bool public claimable;\n    \n    // mapping of all participants (true or false)\n    mapping(address => bool) participants;\n    \n    // figure out how much each owner can pay; separate from pot\n    // unclear if this needs to be in contract\n    mapping(address => uint) public balances;\n    \n    constructor() public {\n        owner = msg.sender;\n        individualDeposit = 5;\n        active = true;\n        claimable = false;\n    }\n    \n    // events\n    event eventBoughtIn(address _account);\n    event eventDeclareWinner(address _account);\n    event eventDraft(uint playerId);\n\n\n    // modifiers\n    modifier verifyCommissioner(address _account) {\n        require(_account == owner, \"Not authorized\");\n        _;\n    }\n\n    modifier verifyInactive() {\n        require(active == false, \"League active\");\n        _;\n    }\n    \n    modifier verifyActive() {\n        require(active == true, \"League inactive\");\n        _;\n    }\n    \n    modifier preventDuplicate(address _account) {\n        require(participants[_account] != true, \"Already bought in\");\n        _;\n    }\n    \n    modifier boughtIn(address _account) {\n        require(participants[_account] == true, \"Have not bought in\");\n        _;\n    }\n\n    function getStatus() public view returns (bool) {\n        return active;\n    }\n    \n    // Retrieving the owners\n    function getOwners() public view returns(address[24]) {\n        return owners;\n    }\n\n    // get winner\n    function getWinner() public view returns(address) {\n        return winner;\n    }\n    \n    function getBalance(address _account) \n        public \n        view \n        boughtIn(_account)\n        returns(uint) \n    {\n        uint bal = balances[_account];\n        return bal;\n    }\n    \n    // Draft a player\n    function draftPlayer(uint playerId, uint cost) \n        public \n        returns(uint) \n    {\n        require(playerId >= 0 && playerId <= 23, \"Invalid player selected.\");\n\n        emit eventDraft(playerId);\n\n        owners[playerId] = msg.sender;\n\n        // make this safe\n        // balances[msg.sender] -= cost;\n\n        uint newBalance = SafeMath.sub(balances[msg.sender], cost);\n\n        balances[msg.sender] = newBalance;\n\n        return newBalance;\n    }\n    \n    // deposit funds \n    function buyIn() \n        public\n        payable \n        preventDuplicate(msg.sender)\n        verifyActive()\n    {\n        // return change; refer to old contracts/modifiers\n        require(msg.value >= individualDeposit, \"Insufficient funds\"); \n        emit eventBoughtIn(msg.sender);\n        totalPot += individualDeposit;\n        participants[msg.sender] = true;\n        balances[msg.sender] = 10;\n    }\n\n    // declare winner and pay him/her\n    function declareWinner(address _account) \n        public\n        verifyCommissioner(msg.sender)\n        verifyActive()\n    {\n        emit eventDeclareWinner(_account);\n        active = false;\n        winner = _account;\n        winner.transfer(totalPot);\n        totalPot = 0;\n    }\n    \n    // return funds in case of emergency\n    function emergencyReturn() \n        public\n        verifyCommissioner(msg.sender)\n        verifyActive()\n    {\n        active = false; // ensures method can't be called multi times\n        claimable = true;\n    }\n    \n    function withdrawFunds()\n        public\n    {\n        require(claimable == true, \"Cannot withdraw\");\n        totalPot -= individualDeposit;\n        uint val = balances[msg.sender];\n        balances[msg.sender] = 0;\n        msg.sender.transfer(val);\n    }\n}",
  "sourcePath": "/Users/andrew/Desktop/code/fantasy_fb/contracts/Draft.sol",
  "compiler": {
    "name": "solc",
    "version": "0.4.24+commit.e67f0147.Emscripten.clang"
  },
  "schemaVersion": "2.0.1",
  "updatedAt": "2018-08-28T10:31:48.673Z"
}