{
  "contractName": "Draft",
  "abi": [
    {
      "constant": true,
      "inputs": [
        {
          "name": "",
          "type": "uint256"
        }
      ],
      "name": "owners",
      "outputs": [
        {
          "name": "",
          "type": "address"
        }
      ],
      "payable": false,
      "stateMutability": "view",
      "type": "function"
    },
    {
      "constant": true,
      "inputs": [],
      "name": "active",
      "outputs": [
        {
          "name": "",
          "type": "bool"
        }
      ],
      "payable": false,
      "stateMutability": "view",
      "type": "function"
    },
    {
      "constant": true,
      "inputs": [],
      "name": "totalPot",
      "outputs": [
        {
          "name": "",
          "type": "uint256"
        }
      ],
      "payable": false,
      "stateMutability": "view",
      "type": "function"
    },
    {
      "constant": true,
      "inputs": [
        {
          "name": "",
          "type": "address"
        }
      ],
      "name": "balances",
      "outputs": [
        {
          "name": "",
          "type": "uint256"
        }
      ],
      "payable": false,
      "stateMutability": "view",
      "type": "function"
    },
    {
      "constant": false,
      "inputs": [],
      "name": "kill",
      "outputs": [],
      "payable": false,
      "stateMutability": "nonpayable",
      "type": "function"
    },
    {
      "constant": true,
      "inputs": [],
      "name": "owner",
      "outputs": [
        {
          "name": "",
          "type": "address"
        }
      ],
      "payable": false,
      "stateMutability": "view",
      "type": "function"
    },
    {
      "constant": true,
      "inputs": [],
      "name": "claimable",
      "outputs": [
        {
          "name": "",
          "type": "bool"
        }
      ],
      "payable": false,
      "stateMutability": "view",
      "type": "function"
    },
    {
      "constant": true,
      "inputs": [],
      "name": "winner",
      "outputs": [
        {
          "name": "",
          "type": "address"
        }
      ],
      "payable": false,
      "stateMutability": "view",
      "type": "function"
    },
    {
      "constant": true,
      "inputs": [],
      "name": "individualDeposit",
      "outputs": [
        {
          "name": "",
          "type": "uint256"
        }
      ],
      "payable": false,
      "stateMutability": "view",
      "type": "function"
    },
    {
      "inputs": [],
      "payable": false,
      "stateMutability": "nonpayable",
      "type": "constructor"
    },
    {
      "anonymous": false,
      "inputs": [
        {
          "indexed": false,
          "name": "_account",
          "type": "address"
        }
      ],
      "name": "eventBoughtIn",
      "type": "event"
    },
    {
      "anonymous": false,
      "inputs": [
        {
          "indexed": false,
          "name": "_account",
          "type": "address"
        }
      ],
      "name": "eventDeclareWinner",
      "type": "event"
    },
    {
      "anonymous": false,
      "inputs": [
        {
          "indexed": false,
          "name": "playerId",
          "type": "uint256"
        }
      ],
      "name": "eventDraft",
      "type": "event"
    },
    {
      "constant": true,
      "inputs": [],
      "name": "getStatus",
      "outputs": [
        {
          "name": "",
          "type": "bool"
        }
      ],
      "payable": false,
      "stateMutability": "view",
      "type": "function"
    },
    {
      "constant": true,
      "inputs": [],
      "name": "getOwners",
      "outputs": [
        {
          "name": "",
          "type": "address[24]"
        }
      ],
      "payable": false,
      "stateMutability": "view",
      "type": "function"
    },
    {
      "constant": true,
      "inputs": [],
      "name": "getWinner",
      "outputs": [
        {
          "name": "",
          "type": "address"
        }
      ],
      "payable": false,
      "stateMutability": "view",
      "type": "function"
    },
    {
      "constant": true,
      "inputs": [
        {
          "name": "_account",
          "type": "address"
        }
      ],
      "name": "getBalance",
      "outputs": [
        {
          "name": "",
          "type": "uint256"
        }
      ],
      "payable": false,
      "stateMutability": "view",
      "type": "function"
    },
    {
      "constant": false,
      "inputs": [
        {
          "name": "playerId",
          "type": "uint256"
        },
        {
          "name": "cost",
          "type": "uint256"
        }
      ],
      "name": "draftPlayer",
      "outputs": [
        {
          "name": "",
          "type": "uint256"
        }
      ],
      "payable": false,
      "stateMutability": "nonpayable",
      "type": "function"
    },
    {
      "constant": false,
      "inputs": [],
      "name": "buyIn",
      "outputs": [],
      "payable": true,
      "stateMutability": "payable",
      "type": "function"
    },
    {
      "constant": false,
      "inputs": [
        {
          "name": "_account",
          "type": "address"
        }
      ],
      "name": "declareWinner",
      "outputs": [],
      "payable": false,
      "stateMutability": "nonpayable",
      "type": "function"
    },
    {
      "constant": false,
      "inputs": [],
      "name": "emergencyReturn",
      "outputs": [],
      "payable": false,
      "stateMutability": "nonpayable",
      "type": "function"
    },
    {
      "constant": false,
      "inputs": [],
      "name": "withdrawFunds",
      "outputs": [],
      "payable": false,
      "stateMutability": "nonpayable",
      "type": "function"
    },
    {
      "constant": false,
      "inputs": [],
      "name": "makeActive",
      "outputs": [],
      "payable": false,
      "stateMutability": "nonpayable",
      "type": "function"
    }
  ],
  "bytecode": "0x608060405234801561001057600080fd5b50336000806101000a81548173ffffffffffffffffffffffffffffffffffffffff021916908373ffffffffffffffffffffffffffffffffffffffff16021790555033601b60006101000a81548173ffffffffffffffffffffffffffffffffffffffff021916908373ffffffffffffffffffffffffffffffffffffffff16021790555060056019819055506001601c60146101000a81548160ff0219169083151502179055506000601c60156101000a81548160ff0219169083151502179055506114ec806100df6000396000f300608060405260043610610107576000357c0100000000000000000000000000000000000000000000000000000000900463ffffffff168063025e7c271461010c57806302fb0c5e1461017957806324600fc3146101a857806324b570a9146101bf57806327e235e3146101ea57806341c0e1b5146102415780634e69d5601461025857806353aab434146102875780635a4b8c1d146102915780636fd84874146102a85780638da5cb5b146102f35780638e7ea5b21461034a578063a0e67e2b146103a1578063af38d757146103f4578063c749cd2214610423578063db33f4f81461043a578063dfbf53ae1461047d578063efb5c1f8146104d4578063f8b2cb4f146104ff575b600080fd5b34801561011857600080fd5b5061013760048036038101908080359060200190929190505050610556565b604051808273ffffffffffffffffffffffffffffffffffffffff1673ffffffffffffffffffffffffffffffffffffffff16815260200191505060405180910390f35b34801561018557600080fd5b5061018e61058b565b604051808215151515815260200191505060405180910390f35b3480156101b457600080fd5b506101bd61059e565b005b3480156101cb57600080fd5b506101d461068e565b6040518082815260200191505060405180910390f35b3480156101f657600080fd5b5061022b600480360381019080803573ffffffffffffffffffffffffffffffffffffffff169060200190929190505050610694565b6040518082815260200191505060405180910390f35b34801561024d57600080fd5b506102566106ac565b005b34801561026457600080fd5b5061026d61073d565b604051808215151515815260200191505060405180910390f35b61028f610754565b005b34801561029d57600080fd5b506102a6610a40565b005b3480156102b457600080fd5b506102dd6004803603810190808035906020019092919080359060200190929190505050610bca565b6040518082815260200191505060405180910390f35b3480156102ff57600080fd5b50610308610ec7565b604051808273ffffffffffffffffffffffffffffffffffffffff1673ffffffffffffffffffffffffffffffffffffffff16815260200191505060405180910390f35b34801561035657600080fd5b5061035f610eed565b604051808273ffffffffffffffffffffffffffffffffffffffff1673ffffffffffffffffffffffffffffffffffffffff16815260200191505060405180910390f35b3480156103ad57600080fd5b506103b6610f17565b6040518082601860200280838360005b838110156103e15780820151818401526020810190506103c6565b5050505090500191505060405180910390f35b34801561040057600080fd5b50610409610f98565b604051808215151515815260200191505060405180910390f35b34801561042f57600080fd5b50610438610fab565b005b34801561044657600080fd5b5061047b600480360381019080803573ffffffffffffffffffffffffffffffffffffffff16906020019092919050505061108f565b005b34801561048957600080fd5b50610492611316565b604051808273ffffffffffffffffffffffffffffffffffffffff1673ffffffffffffffffffffffffffffffffffffffff16815260200191505060405180910390f35b3480156104e057600080fd5b506104e961133c565b6040518082815260200191505060405180910390f35b34801561050b57600080fd5b50610540600480360381019080803573ffffffffffffffffffffffffffffffffffffffff169060200190929190505050611342565b6040518082815260200191505060405180910390f35b60018160188110151561056557fe5b016000915054906101000a900473ffffffffffffffffffffffffffffffffffffffff1681565b601c60149054906101000a900460ff1681565b600060011515601c60159054906101000a900460ff16151514151561062b576040517f08c379a000000000000000000000000000000000000000000000000000000000815260040180806020018281038252600f8152602001807f43616e6e6f74207769746864726177000000000000000000000000000000000081525060200191505060405180910390fd5b610639601a5460195461145a565b905080601a819055503373ffffffffffffffffffffffffffffffffffffffff166108fc6019549081150290604051600060405180830381858888f1935050505015801561068a573d6000803e3d6000fd5b5050565b601a5481565b601e6020528060005260406000206000915090505481565b6000809054906101000a900473ffffffffffffffffffffffffffffffffffffffff1673ffffffffffffffffffffffffffffffffffffffff163373ffffffffffffffffffffffffffffffffffffffff16141561073b576000809054906101000a900473ffffffffffffffffffffffffffffffffffffffff1673ffffffffffffffffffffffffffffffffffffffff16ff5b565b6000601c60149054906101000a900460ff16905090565b60003360011515601d60008373ffffffffffffffffffffffffffffffffffffffff1673ffffffffffffffffffffffffffffffffffffffff16815260200190815260200160002060009054906101000a900460ff16151514151515610820576040517f08c379a00000000000000000000000000000000000000000000000000000000081526004018080602001828103825260118152602001807f416c726561647920626f7567687420696e00000000000000000000000000000081525060200191505060405180910390fd5b60011515601c60149054906101000a900460ff1615151415156108ab576040517f08c379a000000000000000000000000000000000000000000000000000000000815260040180806020018281038252600f8152602001807f4c656167756520696e616374697665000000000000000000000000000000000081525060200191505060405180910390fd5b6019543410151515610925576040517f08c379a00000000000000000000000000000000000000000000000000000000081526004018080602001828103825260128152602001807f496e73756666696369656e742066756e6473000000000000000000000000000081525060200191505060405180910390fd5b7fdf97e47d600e22fa541a5ef275b9f5589fce5b95d4b427cb4e19126738ef23d633604051808273ffffffffffffffffffffffffffffffffffffffff1673ffffffffffffffffffffffffffffffffffffffff16815260200191505060405180910390a1610996601a5460195461147b565b915081601a819055506001601d60003373ffffffffffffffffffffffffffffffffffffffff1673ffffffffffffffffffffffffffffffffffffffff16815260200190815260200160002060006101000a81548160ff021916908315150217905550600a601e60003373ffffffffffffffffffffffffffffffffffffffff1673ffffffffffffffffffffffffffffffffffffffff168152602001908152602001600020819055505050565b33601b60009054906101000a900473ffffffffffffffffffffffffffffffffffffffff1673ffffffffffffffffffffffffffffffffffffffff168173ffffffffffffffffffffffffffffffffffffffff16141515610b06576040517f08c379a000000000000000000000000000000000000000000000000000000000815260040180806020018281038252600e8152602001807f4e6f7420617574686f72697a656400000000000000000000000000000000000081525060200191505060405180910390fd5b60011515601c60149054906101000a900460ff161515141515610b91576040517f08c379a000000000000000000000000000000000000000000000000000000000815260040180806020018281038252600f8152602001807f4c656167756520696e616374697665000000000000000000000000000000000081525060200191505060405180910390fd5b6000601c60146101000a81548160ff0219169083151502179055506001601c60156101000a81548160ff02191690831515021790555050565b6000803360011515601d60008373ffffffffffffffffffffffffffffffffffffffff1673ffffffffffffffffffffffffffffffffffffffff16815260200190815260200160002060009054906101000a900460ff161515141515610c96576040517f08c379a00000000000000000000000000000000000000000000000000000000081526004018080602001828103825260128152602001807f48617665206e6f7420626f7567687420696e000000000000000000000000000081525060200191505060405180910390fd5b60011515601c60149054906101000a900460ff161515141515610d21576040517f08c379a000000000000000000000000000000000000000000000000000000000815260040180806020018281038252600f8152602001807f4c656167756520696e616374697665000000000000000000000000000000000081525060200191505060405180910390fd5b60008510158015610d33575060178511155b1515610da7576040517f08c379a00000000000000000000000000000000000000000000000000000000081526004018080602001828103825260188152602001807f496e76616c696420706c617965722073656c65637465642e000000000000000081525060200191505060405180910390fd5b7fb101ce3b05c60b5e398ccbab5b11219b1abcb03665cba30ea28734c8a7e19ccb856040518082815260200191505060405180910390a133600186601881101515610dee57fe5b0160006101000a81548173ffffffffffffffffffffffffffffffffffffffff021916908373ffffffffffffffffffffffffffffffffffffffff160217905550610e76601e60003373ffffffffffffffffffffffffffffffffffffffff1673ffffffffffffffffffffffffffffffffffffffff168152602001908152602001600020548561145a565b915081601e60003373ffffffffffffffffffffffffffffffffffffffff1673ffffffffffffffffffffffffffffffffffffffff16815260200190815260200160002081905550819250505092915050565b601b60009054906101000a900473ffffffffffffffffffffffffffffffffffffffff1681565b6000601c60009054906101000a900473ffffffffffffffffffffffffffffffffffffffff16905090565b610f1f61149c565b6001601880602002604051908101604052809291908260188015610f8e576020028201915b8160009054906101000a900473ffffffffffffffffffffffffffffffffffffffff1673ffffffffffffffffffffffffffffffffffffffff1681526020019060010190808311610f44575b5050505050905090565b601c60159054906101000a900460ff1681565b33601b60009054906101000a900473ffffffffffffffffffffffffffffffffffffffff1673ffffffffffffffffffffffffffffffffffffffff168173ffffffffffffffffffffffffffffffffffffffff16141515611071576040517f08c379a000000000000000000000000000000000000000000000000000000000815260040180806020018281038252600e8152602001807f4e6f7420617574686f72697a656400000000000000000000000000000000000081525060200191505060405180910390fd5b6001601c60146101000a81548160ff02191690831515021790555050565b33601b60009054906101000a900473ffffffffffffffffffffffffffffffffffffffff1673ffffffffffffffffffffffffffffffffffffffff168173ffffffffffffffffffffffffffffffffffffffff16141515611155576040517f08c379a000000000000000000000000000000000000000000000000000000000815260040180806020018281038252600e8152602001807f4e6f7420617574686f72697a656400000000000000000000000000000000000081525060200191505060405180910390fd5b60011515601c60149054906101000a900460ff1615151415156111e0576040517f08c379a000000000000000000000000000000000000000000000000000000000815260040180806020018281038252600f8152602001807f4c656167756520696e616374697665000000000000000000000000000000000081525060200191505060405180910390fd5b7f65a0544c1478716142aad2795cb642e167df1ac3d615c1256cf54bd5d323ef8e82604051808273ffffffffffffffffffffffffffffffffffffffff1673ffffffffffffffffffffffffffffffffffffffff16815260200191505060405180910390a16000601c60146101000a81548160ff02191690831515021790555081601c60006101000a81548173ffffffffffffffffffffffffffffffffffffffff021916908373ffffffffffffffffffffffffffffffffffffffff160217905550601c60009054906101000a900473ffffffffffffffffffffffffffffffffffffffff1673ffffffffffffffffffffffffffffffffffffffff166108fc601a549081150290604051600060405180830381858888f19350505050158015611309573d6000803e3d6000fd5b506000601a819055505050565b601c60009054906101000a900473ffffffffffffffffffffffffffffffffffffffff1681565b60195481565b6000808260011515601d60008373ffffffffffffffffffffffffffffffffffffffff1673ffffffffffffffffffffffffffffffffffffffff16815260200190815260200160002060009054906101000a900460ff16151514151561140e576040517f08c379a00000000000000000000000000000000000000000000000000000000081526004018080602001828103825260128152602001807f48617665206e6f7420626f7567687420696e000000000000000000000000000081525060200191505060405180910390fd5b601e60008573ffffffffffffffffffffffffffffffffffffffff1673ffffffffffffffffffffffffffffffffffffffff1681526020019081526020016000205491508192505050919050565b60008083831115151561146c57600080fd5b82840390508091505092915050565b600080828401905083811015151561149257600080fd5b8091505092915050565b610300604051908101604052806018906020820280388339808201915050905050905600a165627a7a72305820453bbaf38785cdf1589d81f704caf9728a34dd8b279429be0604aa7197bd0e950029",
  "source": "/** \n* FUTURE PLANS: \n* owner/commisioner gets special permissions on the web interface\n* Draft, trade, release, add, multisig (later)\n*/\n\npragma solidity ^0.4.22;\n\n// use OpenZeppelin's SafeMath library to prevent over/underflow on Integer operations\nimport \"./SafeMath.sol\";\n\n/** @title owned contract. */\ncontract owned {\n    constructor() public { owner = msg.sender; }\n    address owner;\n}\n\n/** @title mortal contract. */\ncontract mortal is owned {\n    /** @dev Emergency stop/kill method */\n    function kill() public {\n        if (msg.sender == owner) selfdestruct(owner);\n    }\n}\n\ncontract Draft is owned, mortal{\n\n    // array matching owners to players\n    address[24] public owners;\n    \n    uint public individualDeposit;\n    uint public totalPot;\n    \n    // commisioner\n    address public owner;\n    \n    // league winner\n    address public winner;\n    \n    // is the league active?\n    bool public active;\n    \n    // can users claim funds?\n    bool public claimable;\n    \n    // mapping of all participants (true or false)\n    mapping(address => bool) participants;\n    \n    // figure out how much each owner can pay; separate from pot\n    // unclear if this needs to be in contract\n    mapping(address => uint) public balances;\n    \n    constructor() public {\n        owner = msg.sender;\n        individualDeposit = 5;\n        active = true;\n        claimable = false;\n    }\n    \n    // events\n    event eventBoughtIn(address _account);\n    event eventDeclareWinner(address _account);\n    event eventDraft(uint playerId);\n\n\n    // modifiers\n    modifier verifyCommissioner(address _account) {\n        require(_account == owner, \"Not authorized\");\n        _;\n    }\n\n    modifier verifyInactive() {\n        require(active == false, \"League active\");\n        _;\n    }\n    \n    modifier verifyActive() {\n        require(active == true, \"League inactive\");\n        _;\n    }\n    \n    modifier preventDuplicate(address _account) {\n        require(participants[_account] != true, \"Already bought in\");\n        _;\n    }\n    \n    modifier boughtIn(address _account) {\n        require(participants[_account] == true, \"Have not bought in\");\n        _;\n    }\n\n    /** @dev Returns the current league status.\n      * @return active The boolean representing whether the league is active or not.\n      */\n    function getStatus() public view returns (bool) {\n        return active;\n    }\n    \n    /** @dev Retrieves the owners of fantasy players\n      * @return owners The array of owners, with indices representing IDs of fantasy players.\n      */\n    function getOwners() public view returns(address[24]) {\n        return owners;\n    }\n\n    /** @dev Retrieves the winner of the league\n      * @return winner Self-explanatory.\n      */\n    function getWinner() public view returns(address) {\n        return winner;\n    }\n    \n    /** @dev Returns the balance of a given address\n      * @param _account an address\n      * @return bal A uint representing an address' balance.\n      */\n    function getBalance(address _account) \n        public \n        view \n        boughtIn(_account)\n        returns(uint) \n    {\n        uint bal = balances[_account];\n        return bal;\n    }\n    \n    /** @dev Draft a specific player and deduct their cost. Emits draft event.\n      * @param playerId A uint representing the ID of the player (specified in players.json file located in src folder)\n      * @param cost A uint representing how much it \"costs\" to draft this player\n      * @return newBalance A uint representing the updated balance of the owner of this freshly drafted player.\n      */\n    function draftPlayer(uint playerId, uint cost) \n        public \n        boughtIn(msg.sender)\n        verifyActive()\n        returns(uint) \n    {\n        require(playerId >= 0 && playerId <= 23, \"Invalid player selected.\");\n        emit eventDraft(playerId);\n        owners[playerId] = msg.sender;\n\n        uint newBalance = SafeMath.sub(balances[msg.sender], cost);\n        balances[msg.sender] = newBalance;\n        return newBalance;\n    }\n    \n    /** @dev Allows users to buy into the league. Handles potential for a user to buy in multiple times. Default balance allocation\n      * is 10. Emits boughtIn event.\n      */\n    function buyIn() \n        public\n        payable \n        preventDuplicate(msg.sender)\n        verifyActive()\n    {\n        // return change; refer to old contracts/modifiers\n        require(msg.value >= individualDeposit, \"Insufficient funds\"); \n        emit eventBoughtIn(msg.sender);\n        uint newBalance = SafeMath.add(totalPot, individualDeposit);\n        totalPot = newBalance;\n        participants[msg.sender] = true;\n        balances[msg.sender] = 10;\n    }\n    \n    /** @dev Declare winner and pay him/her. Emit declareWinner event.\n      * @param _account The account of the winner.\n      */\n    function declareWinner(address _account) \n        public\n        verifyCommissioner(msg.sender)\n        verifyActive()\n    {\n        emit eventDeclareWinner(_account);\n        active = false;\n        winner = _account;\n        winner.transfer(totalPot);\n        totalPot = 0;\n    }\n    \n    /** @dev Return funds (aka buy-in) to users in case of emergency. TO-DO: loop through and return funds.\n      */\n    function emergencyReturn() \n        public\n        verifyCommissioner(msg.sender)\n        verifyActive()\n    {\n        active = false; // ensures method can't be called multi times\n        claimable = true;\n    }\n    \n    /** @dev Allows users to withdraw funds. TO-DO: rethink this function; possibly require multisig to enable this.\n      */\n    function withdrawFunds()\n        public\n    {\n        require(claimable == true, \"Cannot withdraw\");\n        uint newAmount = SafeMath.sub(totalPot, individualDeposit);\n        totalPot = newAmount;\n        msg.sender.transfer(individualDeposit);\n    }\n\n    /** @dev Helper method for tests\n      */\n    function makeActive()\n        public\n        verifyCommissioner(msg.sender)\n    {\n        active = true;\n    }\n}",
  "sourcePath": "/Users/andrew/Desktop/code/fantasy_fb/contracts/Draft.sol",
  "compiler": {
    "name": "solc",
    "version": "0.4.24+commit.e67f0147.Emscripten.clang"
  },
  "schemaVersion": "2.0.1",
  "updatedAt": "2018-08-28T12:11:05.376Z"
}