{
  "contractName": "Draft",
  "abi": [
    {
      "constant": true,
      "inputs": [
        {
          "name": "",
          "type": "uint256"
        }
      ],
      "name": "owners",
      "outputs": [
        {
          "name": "",
          "type": "address"
        }
      ],
      "payable": false,
      "stateMutability": "view",
      "type": "function"
    },
    {
      "constant": true,
      "inputs": [],
      "name": "active",
      "outputs": [
        {
          "name": "",
          "type": "bool"
        }
      ],
      "payable": false,
      "stateMutability": "view",
      "type": "function"
    },
    {
      "constant": true,
      "inputs": [],
      "name": "totalPot",
      "outputs": [
        {
          "name": "",
          "type": "uint256"
        }
      ],
      "payable": false,
      "stateMutability": "view",
      "type": "function"
    },
    {
      "constant": true,
      "inputs": [
        {
          "name": "",
          "type": "address"
        }
      ],
      "name": "balances",
      "outputs": [
        {
          "name": "",
          "type": "uint256"
        }
      ],
      "payable": false,
      "stateMutability": "view",
      "type": "function"
    },
    {
      "constant": true,
      "inputs": [],
      "name": "owner",
      "outputs": [
        {
          "name": "",
          "type": "address"
        }
      ],
      "payable": false,
      "stateMutability": "view",
      "type": "function"
    },
    {
      "constant": true,
      "inputs": [],
      "name": "claimable",
      "outputs": [
        {
          "name": "",
          "type": "bool"
        }
      ],
      "payable": false,
      "stateMutability": "view",
      "type": "function"
    },
    {
      "constant": true,
      "inputs": [],
      "name": "winner",
      "outputs": [
        {
          "name": "",
          "type": "address"
        }
      ],
      "payable": false,
      "stateMutability": "view",
      "type": "function"
    },
    {
      "constant": true,
      "inputs": [],
      "name": "individualDeposit",
      "outputs": [
        {
          "name": "",
          "type": "uint256"
        }
      ],
      "payable": false,
      "stateMutability": "view",
      "type": "function"
    },
    {
      "inputs": [],
      "payable": false,
      "stateMutability": "nonpayable",
      "type": "constructor"
    },
    {
      "constant": true,
      "inputs": [],
      "name": "getOwners",
      "outputs": [
        {
          "name": "",
          "type": "address[24]"
        }
      ],
      "payable": false,
      "stateMutability": "view",
      "type": "function"
    },
    {
      "constant": true,
      "inputs": [
        {
          "name": "_account",
          "type": "address"
        }
      ],
      "name": "getBalances",
      "outputs": [
        {
          "name": "",
          "type": "uint256"
        }
      ],
      "payable": false,
      "stateMutability": "view",
      "type": "function"
    },
    {
      "constant": false,
      "inputs": [
        {
          "name": "playerId",
          "type": "uint256"
        },
        {
          "name": "cost",
          "type": "uint256"
        }
      ],
      "name": "draft",
      "outputs": [
        {
          "name": "",
          "type": "uint256"
        }
      ],
      "payable": false,
      "stateMutability": "nonpayable",
      "type": "function"
    },
    {
      "constant": false,
      "inputs": [],
      "name": "buyIn",
      "outputs": [],
      "payable": true,
      "stateMutability": "payable",
      "type": "function"
    },
    {
      "constant": false,
      "inputs": [
        {
          "name": "_account",
          "type": "address"
        }
      ],
      "name": "declareWinner",
      "outputs": [],
      "payable": false,
      "stateMutability": "nonpayable",
      "type": "function"
    },
    {
      "constant": false,
      "inputs": [],
      "name": "emergencyReturn",
      "outputs": [],
      "payable": false,
      "stateMutability": "nonpayable",
      "type": "function"
    },
    {
      "constant": false,
      "inputs": [],
      "name": "withdrawFunds",
      "outputs": [],
      "payable": false,
      "stateMutability": "nonpayable",
      "type": "function"
    }
  ],
  "bytecode": "0x608060405234801561001057600080fd5b5033601a60006101000a81548173ffffffffffffffffffffffffffffffffffffffff021916908373ffffffffffffffffffffffffffffffffffffffff16021790555060056018819055506001601b60146101000a81548160ff0219169083151502179055506000601b60156101000a81548160ff021916908315150217905550610f268061009f6000396000f3006080604052600436106100db576000357c0100000000000000000000000000000000000000000000000000000000900463ffffffff168063025e7c27146100e057806302fb0c5e1461014d57806324600fc31461017c57806324b570a91461019357806327e235e3146101be57806353aab434146102155780635a4b8c1d1461021f578063834bad97146102365780638da5cb5b14610281578063a0e67e2b146102d8578063af38d7571461032b578063c84aae171461035a578063db33f4f8146103b1578063dfbf53ae146103f4578063efb5c1f81461044b575b600080fd5b3480156100ec57600080fd5b5061010b60048036038101908080359060200190929190505050610476565b604051808273ffffffffffffffffffffffffffffffffffffffff1673ffffffffffffffffffffffffffffffffffffffff16815260200191505060405180910390f35b34801561015957600080fd5b506101626104ab565b604051808215151515815260200191505060405180910390f35b34801561018857600080fd5b506101916104be565b005b34801561019f57600080fd5b506101a861062e565b6040518082815260200191505060405180910390f35b3480156101ca57600080fd5b506101ff600480360381019080803573ffffffffffffffffffffffffffffffffffffffff169060200190929190505050610634565b6040518082815260200191505060405180910390f35b61021d61064c565b005b34801561022b57600080fd5b506102346108cd565b005b34801561024257600080fd5b5061026b6004803603810190808035906020019092919080359060200190929190505050610a57565b6040518082815260200191505060405180910390f35b34801561028d57600080fd5b50610296610b83565b604051808273ffffffffffffffffffffffffffffffffffffffff1673ffffffffffffffffffffffffffffffffffffffff16815260200191505060405180910390f35b3480156102e457600080fd5b506102ed610ba9565b6040518082601860200280838360005b838110156103185780820151818401526020810190506102fd565b5050505090500191505060405180910390f35b34801561033757600080fd5b50610340610c2a565b604051808215151515815260200191505060405180910390f35b34801561036657600080fd5b5061039b600480360381019080803573ffffffffffffffffffffffffffffffffffffffff169060200190929190505050610c3d565b6040518082815260200191505060405180910390f35b3480156103bd57600080fd5b506103f2600480360381019080803573ffffffffffffffffffffffffffffffffffffffff169060200190929190505050610c86565b005b34801561040057600080fd5b50610409610eaa565b604051808273ffffffffffffffffffffffffffffffffffffffff1673ffffffffffffffffffffffffffffffffffffffff16815260200191505060405180910390f35b34801561045757600080fd5b50610460610ed0565b6040518082815260200191505060405180910390f35b60008160188110151561048557fe5b016000915054906101000a900473ffffffffffffffffffffffffffffffffffffffff1681565b601b60149054906101000a900460ff1681565b600060011515601b60159054906101000a900460ff16151514151561054b576040517f08c379a000000000000000000000000000000000000000000000000000000000815260040180806020018281038252600f8152602001807f43616e6e6f74207769746864726177000000000000000000000000000000000081525060200191505060405180910390fd5b601854601960008282540392505081905550601d60003373ffffffffffffffffffffffffffffffffffffffff1673ffffffffffffffffffffffffffffffffffffffff1681526020019081526020016000205490506000601d60003373ffffffffffffffffffffffffffffffffffffffff1673ffffffffffffffffffffffffffffffffffffffff168152602001908152602001600020819055503373ffffffffffffffffffffffffffffffffffffffff166108fc829081150290604051600060405180830381858888f1935050505015801561062a573d6000803e3d6000fd5b5050565b60195481565b601d6020528060005260406000206000915090505481565b3360011515601c60008373ffffffffffffffffffffffffffffffffffffffff1673ffffffffffffffffffffffffffffffffffffffff16815260200190815260200160002060009054906101000a900460ff16151514151515610716576040517f08c379a00000000000000000000000000000000000000000000000000000000081526004018080602001828103825260118152602001807f416c726561647920626f7567687420696e00000000000000000000000000000081525060200191505060405180910390fd5b60011515601b60149054906101000a900460ff1615151415156107a1576040517f08c379a000000000000000000000000000000000000000000000000000000000815260040180806020018281038252600f8152602001807f4c656167756520696e616374697665000000000000000000000000000000000081525060200191505060405180910390fd5b601854341015151561081b576040517f08c379a00000000000000000000000000000000000000000000000000000000081526004018080602001828103825260128152602001807f496e73756666696369656e742066756e6473000000000000000000000000000081525060200191505060405180910390fd5b6018546019600082825401925050819055506001601c60003373ffffffffffffffffffffffffffffffffffffffff1673ffffffffffffffffffffffffffffffffffffffff16815260200190815260200160002060006101000a81548160ff021916908315150217905550600a601d60003373ffffffffffffffffffffffffffffffffffffffff1673ffffffffffffffffffffffffffffffffffffffff1681526020019081526020016000208190555050565b33601a60009054906101000a900473ffffffffffffffffffffffffffffffffffffffff1673ffffffffffffffffffffffffffffffffffffffff168173ffffffffffffffffffffffffffffffffffffffff16141515610993576040517f08c379a000000000000000000000000000000000000000000000000000000000815260040180806020018281038252600e8152602001807f4e6f7420617574686f72697a656400000000000000000000000000000000000081525060200191505060405180910390fd5b60011515601b60149054906101000a900460ff161515141515610a1e576040517f08c379a000000000000000000000000000000000000000000000000000000000815260040180806020018281038252600f8152602001807f4c656167756520696e616374697665000000000000000000000000000000000081525060200191505060405180910390fd5b6000601b60146101000a81548160ff0219169083151502179055506001601b60156101000a81548160ff02191690831515021790555050565b6000808310158015610a6a575060178311155b1515610ade576040517f08c379a00000000000000000000000000000000000000000000000000000000081526004018080602001828103825260188152602001807f496e76616c696420706c617965722073656c65637465642e000000000000000081525060200191505060405180910390fd5b33600084601881101515610aee57fe5b0160006101000a81548173ffffffffffffffffffffffffffffffffffffffff021916908373ffffffffffffffffffffffffffffffffffffffff16021790555081601d60003373ffffffffffffffffffffffffffffffffffffffff1673ffffffffffffffffffffffffffffffffffffffff1681526020019081526020016000206000828254039250508190555082905092915050565b601a60009054906101000a900473ffffffffffffffffffffffffffffffffffffffff1681565b610bb1610ed6565b6000601880602002604051908101604052809291908260188015610c20576020028201915b8160009054906101000a900473ffffffffffffffffffffffffffffffffffffffff1673ffffffffffffffffffffffffffffffffffffffff1681526020019060010190808311610bd6575b5050505050905090565b601b60159054906101000a900460ff1681565b6000601d60008373ffffffffffffffffffffffffffffffffffffffff1673ffffffffffffffffffffffffffffffffffffffff168152602001908152602001600020549050919050565b33601a60009054906101000a900473ffffffffffffffffffffffffffffffffffffffff1673ffffffffffffffffffffffffffffffffffffffff168173ffffffffffffffffffffffffffffffffffffffff16141515610d4c576040517f08c379a000000000000000000000000000000000000000000000000000000000815260040180806020018281038252600e8152602001807f4e6f7420617574686f72697a656400000000000000000000000000000000000081525060200191505060405180910390fd5b60011515601b60149054906101000a900460ff161515141515610dd7576040517f08c379a000000000000000000000000000000000000000000000000000000000815260040180806020018281038252600f8152602001807f4c656167756520696e616374697665000000000000000000000000000000000081525060200191505060405180910390fd5b6000601b60146101000a81548160ff02191690831515021790555081601b60006101000a81548173ffffffffffffffffffffffffffffffffffffffff021916908373ffffffffffffffffffffffffffffffffffffffff160217905550601b60009054906101000a900473ffffffffffffffffffffffffffffffffffffffff1673ffffffffffffffffffffffffffffffffffffffff166108fc6019549081150290604051600060405180830381858888f19350505050158015610e9d573d6000803e3d6000fd5b5060006019819055505050565b601b60009054906101000a900473ffffffffffffffffffffffffffffffffffffffff1681565b60185481565b610300604051908101604052806018906020820280388339808201915050905050905600a165627a7a72305820aaad29703cb0b7467e236fec6cacdb9013f63e367a991b5b4613d3a972228bd40029",
  "source": "// owner/commisioner gets special permissions on the web interface\n// Draft\n// trade\n// release\n// consider multisig later\n\npragma solidity ^0.4.0;\n\ncontract Draft {\n    // array matching owners to players\n    address[24] public owners;\n    \n    uint public individualDeposit;\n    uint public totalPot;\n    \n    // commisioner\n    address public owner;\n    \n    // league winner\n    address public winner;\n    \n    // is the league active?\n    bool public active;\n    \n    // can users claim funds?\n    bool public claimable;\n    \n    // mapping of all participants (true or false)\n    mapping(address => bool) participants;\n    \n    // figure out how much each owner can pay; separate from pot\n    // unclear if this needs to be in contract\n    mapping(address => uint) public balances;\n    \n    constructor() public {\n        owner = msg.sender;\n        individualDeposit = 5;\n        active = true;\n        claimable = false;\n    }\n    \n    // add events\n    // add modifiers\n    \n    modifier verifyCommissioner(address _account) {\n        require(_account == owner, \"Not authorized\");\n        _;\n    }\n    \n    modifier verifyActive() {\n        require(active == true, \"League inactive\");\n        _;\n    }\n    \n    modifier preventDuplicate(address _account) {\n        require(participants[_account] != true, \"Already bought in\");\n        _;\n    }\n    \n    // Retrieving the owners\n    function getOwners() public view returns(address[24]) {\n        return owners;\n    }\n    \n    function getBalances(address _account) public view returns(uint) {\n        return balances[_account];\n    }\n    \n    // Draft a player\n    function draft(uint playerId, uint cost) public returns(uint) {\n        require(playerId >= 0 && playerId <= 23, \"Invalid player selected.\");\n\n        owners[playerId] = msg.sender;\n\n        // make this safe\n        balances[msg.sender] -= cost;\n\n        return playerId;\n    }\n    \n    // deposit funds \n    function buyIn() \n        public\n        payable \n        preventDuplicate(msg.sender)\n        verifyActive()\n    {\n        // return change; refer to old contracts/modifiers\n        require(msg.value >= individualDeposit, \"Insufficient funds\"); \n        totalPot += individualDeposit;\n        participants[msg.sender] = true;\n        balances[msg.sender] = 10;\n    }\n\n    // declare winner and pay him/her\n    function declareWinner(address _account) \n        public\n        verifyCommissioner(msg.sender)\n        verifyActive()\n    {\n        active = false;\n        winner = _account;\n        winner.transfer(totalPot);\n        totalPot = 0;\n    }\n    \n    // return funds in case of emergency\n    function emergencyReturn() \n        public\n        verifyCommissioner(msg.sender)\n        verifyActive()\n    {\n        active = false; // ensures method can't be called multi times\n        claimable = true;\n    }\n    \n    function withdrawFunds()\n        public\n    {\n        require(claimable == true, \"Cannot withdraw\");\n        totalPot -= individualDeposit;\n        uint val = balances[msg.sender];\n        balances[msg.sender] = 0;\n        msg.sender.transfer(val);\n    }\n}",
  "sourcePath": "/Users/andrewmin8/Desktop/BLOCKCHAIN/truffle/eth-fantasy-football/contracts/Draft.sol",
  "compiler": {
    "name": "solc",
    "version": "0.4.24+commit.e67f0147.Emscripten.clang"
  },
  "schemaVersion": "2.0.1",
  "updatedAt": "2018-08-28T08:02:18.528Z"
}